:100000000C942A000C9447000C9447000C942D0289
:100010000C944E030C947A030C9447000C94470004
:100020000C9447000C9447000C9483020C94AA0291
:100030000C9447000C9447000C9447000C94470024
:100040000C9447000C9447000C9447000C94470014
:100050000C94470011241FBECFE5D8E0DEBFCDBF12
:1000600010E0A0E6B0E0EAE3FBE002C005900D92EC
:10007000A236B107D9F720E0A2E6B0E001C01D9298
:10008000A337B207E1F70E94C8010C949B050C94BA
:100090000000882319F0813001F108954FEF64E0EA
:1000A00083E00E94F3004FEF68E083E00E94F300DA
:1000B0004FEF60E183E00E94F30040E064E083E002
:1000C0000E94290140E068E083E00E94290140E0AD
:1000D00060E183E00E94290108954FEF60E483E02E
:1000E0000E94F3004FEF60E883E00E94F3004FEFBF
:1000F00060E283E00E94F30040E060E483E00E945D
:10010000290140E060E883E00E94290140E060E2CC
:1001100083E00E9429010895882319F0813041F17C
:100120000895613021F0C8F0623061F008954FEF1A
:1001300064E083E00E94290140E068E083E00E94DF
:100140002901089540E064E083E00E9429014FEF17
:1001500068E083E00E942901089540E064E083E0C4
:100160000E94290140E068E083E00E94290108958F
:10017000613021F0C8F0623061F008954FEF60E423
:1001800083E00E94290140E060E883E00E942901A9
:10019000089540E060E483E00E9429014FEF60E8A9
:1001A00083E00E942901089540E060E483E00E941A
:1001B000290140E060E883E00E9429010895CF937F
:1001C000C82F4FEF60E283E00E94F3004FEF60E141
:1001D00083E00E94F30064E670E08C2F90E00E94C0
:1001E000A101CF9108954F3FC1F4813051F028F023
:1001F000823059F0833069F008958AB3682B6ABB66
:10020000089587B3682B67BB089584B3682B64BBDC
:10021000089581B3682B61BB0895813059F028F0AF
:10022000823069F0833081F008958AB36095682345
:100230006ABB089587B36095682367BB089584B34C
:100240006095682364BB089581B36095682361BBA2
:100250000895813071F028F0823099F08330C9F030
:1002600008958BB3962F909589234623482B4BBB3B
:10027000089588B3962F909589234623482B48BB31
:10028000089585B3962F909589234623482B45BB27
:10029000089582B3962F909589234623482B42BB1D
:1002A0000895AF92CF92DF92EF92FF920F931F9338
:1002B0006091620070E080E090E00E94930420E092
:1002C00030E040E053E40E941F059B01AC0160E078
:1002D00074E284E79BE40E94F0030E9462046B01D5
:1002E0007C018091630090E08C9DB0018D9D700D2C
:1002F0009C9D700D112480E090E00E94910420E00C
:1003000030E048EC52E40E94F0030E946204A12C09
:100310007B018B0120E030E045E050E060E070EAD6
:1003200080E192E00E94E1028EB59FB585609FBD9D
:100330008EBD1F910F91FF90EF90DF90CF90AF9007
:10034000089580936300409362000E9451010895D4
:10035000813061F028F0823079F0833099F008958F
:100360004FEF60E181E00E94F30008954FEF60E2FB
:1003700081E00E94F30008954FEF60E481E00E9465
:10038000F30008954FEF60E881E00E94F3000895C4
:100390008FB780688FBF40E064E081E00E94F30087
:1003A0004FEF64E081E00E94290180E00E94A801F3
:1003B00081E00E94A80182E00E94A80183E00E94DF
:1003C000A80181E00E9401024FEF61E082E00E94FB
:1003D000F30084E190E00E94240380E00E94490041
:1003E00081E00E94490061E080E00E948C0061E0B1
:1003F00081E00E948C0082E30E94DF000E94D4030F
:10040000FDCFEF920F93CF93C82FE12C00E020E0B7
:1004100044E060E380E00E946502C13021F484B7CB
:10042000806484BF03C084B78F7B84BF8BB7806236
:100430008BBFCF910F91EF90089520916400FC0144
:10044000208308950E947F020E94770290E090939B
:1004500065008093640012BE08951F920F920FB63C
:100460000F9211242F933F934F935F936F937F933A
:100470008F939F93AF93BF93EF93FF93809160000F
:10048000882351F0813081F40E94790284B78F7BF8
:1004900084BF1092600008C00E94220284B780646A
:1004A00084BF81E080936000FF91EF91BF91AF9195
:1004B0009F918F917F916F915F914F913F912F917C
:1004C0000F900FBE0F901F901895EF920F9313BED1
:1004D000862B83BF22BF0CBF89B7E82AE9BE50E054
:1004E00050936800409367000F91EF90089582B792
:1004F000089593B780916700892B83BF089583B7D0
:10050000887F83BF08951F920F920FB60F92112418
:100510002F933F934F935F936F937F938F939F930B
:10052000AF93BF93EF93FF934FEF61E083E00E949F
:100530002901FF91EF91BF91AF919F918F917F9191
:100540006F915F914F913F912F910F900FBE0F9040
:100550001F9018951F920F920FB60F9211242F9390
:100560003F934F935F936F937F938F939F93AF933B
:10057000BF93EF93FF9340E061E083E00E94290185
:1005800080916600813039F018F0823039F008C06F
:1005900085E082BF05C083E882BF02C083E882BFD6
:1005A000FF91EF91BF91AF919F918F917F916F914B
:1005B0005F914F913F912F910F900FBE0F901F9021
:1005C0001895AF92CF92DF92EF92FF920F931F9305
:1005D0001FBC1EBC50936B0040936A00862B972B68
:1005E0009FBD8EBDD7BCC6BC3DBD2CBD1BBD0ABDCD
:1005F000F9BCE8BC89B7A82AA9BE1F910F91FF904A
:10060000EF90DF90CF90AF900895CF920F9392B577
:10061000907F92BD15BC862B85BD24BD03BD89B7D7
:10062000C82AC9BE50E050937200409371000F91E8
:10063000CF90089595B580917100892B85BD08955F
:1006400083B7887F83BF0895CF92EF920F93CF93A4
:10065000DF93EC01C12CE12C0AEF20E044E060E0E4
:1006600088E00E9405038CE084BD0E941A0308C044
:1006700008B607FEFDCF219714BC88B7806888BFF5
:10068000209721F008B607FEF3CFF5CF0E94200394
:10069000DF91CF910F91EF90CF9008951F920F921D
:1006A0000FB60F9211242F933F934F935F936F9345
:1006B0007F938F939F93AF93BF93EF93FF934FEFEE
:1006C00060E183E00E9429014FEF60E283E00E9435
:1006D0002901FF91EF91BF91AF919F918F917F91F0
:1006E0006F915F914F913F912F910F900FBE0F909F
:1006F0001F9018951F920F920FB60F9211242F93EF
:100700003F934F935F936F937F938F939F93AF9399
:10071000BF93EF93FF9340E060E183E00E942901E3
:1007200040E060E283E00E94290180916600813010
:1007300039F018F0823039F008C085E082BF05C07A
:1007400083E882BF02C083E882BFFF91EF91BF912F
:10075000AF919F918F917F916F915F914F913F9159
:100760002F910F900FBE0F901F901895CF93DF938E
:10077000C0E0D0E0CE010E941D02288180E1289FC8
:1007800090011124AFE9B6E40E948C059295829500
:100790008F7089279F7089278031910510F08FE035
:1007A00090E0DF91CF91089541E061E082E00E9406
:1007B000290185E090E00E94240340E061E082E0AE
:1007C0000E9429010E94B603482F4295407F60EFA6
:1007D00081E00E9429018CE390E00E9424030895A7
:1007E0000E9404040C94E5040E94DE0458F00E9468
:1007F000D70440F029F45F3F29F00C94CE04511146
:100800000C9419050C94D4040E94F60468F39923FF
:10081000B1F3552391F3951B550BBB27AA276217FC
:100820007307840738F09F5F5F4F220F331F441F09
:10083000AA1FA9F335D00E2E3AF0E0E832D091503D
:100840005040E695001CCAF72BD0FE2F29D0660F2A
:10085000771F881FBB1F261737074807AB07B0E86D
:1008600009F0BB0B802DBF01FF2793585F4F3AF073
:100870009E3F510578F00C94CE040C9419055F3F0F
:10088000E4F3983ED4F3869577956795B795F795F9
:100890009F5FC9F7880F911D9695879597F90895E1
:1008A000E1E0660F771F881FBB1F6217730784077D
:1008B000BA0720F0621B730B840BBA0BEE1F88F78C
:1008C000E09508950E94FE0488F09F5798F0B92F94
:1008D0009927B751B0F0E1F0660F771F881F991F75
:1008E0001AF0BA95C9F714C0B13091F00E941805FA
:1008F000B1E008950C941805672F782F8827B85F0A
:1009000039F0B93FCCF3869577956795B395D9F7CC
:100910003EF490958095709561957F4F8F4F9F4FD6
:100920000895E89409C097FB3EF4909580957095E2
:1009300061957F4F8F4F9F4F9923A9F0F92F96E92B
:10094000BB279395F695879577956795B795F111A0
:10095000F8CFFAF4BB0F11F460FF1BC06F5F7F4F3D
:100960008F4F9F4F16C0882311F096E911C077234F
:1009700021F09EE8872F762F05C0662371F096E858
:10098000862F70E060E02AF09A95660F771F881F27
:10099000DAF7880F9695879597F9089597F99F67E5
:1009A00080E870E060E008959FEF80EC08950024F7
:1009B0000A941616170618060906089500240A94C4
:1009C00012161306140605060895092E0394000C4A
:1009D00011F4882352F0BB0F40F4BF2B11F460FFD9
:1009E00004C06F5F7F4F8F4F9F4F089557FD905802
:1009F000440F551F59F05F3F71F04795880F97FBE3
:100A0000991F61F09F3F79F087950895121613069C
:100A10001406551FF2CF4695F1DF08C016161706CB
:100A20001806991FF1CF8695710561050894089500
:100A3000E894BB2766277727CB0197F908950E9492
:100A400032050C94E5040E94D70438F00E94DE04BD
:100A500020F0952311F00C94CE040C94D4041124AE
:100A60000C9419050E94F60470F3959FC1F3950F3D
:100A700050E0551F629FF001729FBB27F00DB11D22
:100A8000639FAA27F00DB11DAA1F649F6627B00DB2
:100A9000A11D661F829F2227B00DA11D621F739F9B
:100AA000B00DA11D621F839FA00D611D221F749FA9
:100AB0003327A00D611D231F849F600D211D822FF0
:100AC000762F6A2F11249F5750409AF0F1F0882317
:100AD0004AF0EE0FFF1FBB1F661F771F881F915044
:100AE0005040A9F79E3F510580F00C94CE040C9421
:100AF00019055F3FE4F3983ED4F3869577956795A3
:100B0000B795F795E7959F5FC1F7FE2B880F911D6D
:100B10009695879597F90895A29FB001B39FC0015C
:100B2000A39F700D811D1124911DB29F700D811D19
:0A0B30001124911D0895F894FFCFE1
:020B3A000100B8
:00000001FF
